:020000040802F0
:10000000F03F002045010208654C0208F135020866
:10001000194B0208E9160208197E020800000000C8
:10002000000000000000000000000000E360020883
:10003000C924020800000000815602085D01020880
:100040005F0102085F0102085F0102085F01020808
:100050005F0102085F0102085F0102085F010208F8
:100060005F0102085F0102085F0102085F010208E8
:100070005F0102085F0102085F0102085F010208D8
:100080005F0102085F0102085F0102085F010208C8
:10009000617D02085F0102085F0102085F0102083A
:1000A0005F0102085F0102085F0102085F010208A8
:1000B0006D6D0208716D02085F0102089D3C020827
:1000C000953C0208AD3C0208A53C02085F0102080D
:1000D0005F0102085F0102085F0102085F01020878
:1000E0005F0102085F0102085F0102085F01020868
:1000F0005F0102085F0102085F0102085F01020858
:100100005F0102085F010208156F02085F01020823
:100110005F0102085F0102085F0102085F01020837
:100120005F0102085F0102085F0102085F01020827
:10013000DFF80CD000F040FC00480047D59B0208D7
:10014000F03F00200648804706480047FEE7FEE7EC
:10015000FEE7FEE7FEE7FEE7FEE7FEE7FEE7FEE777
:10016000ED6A020831010208F0B480EA0102D40FFE
:100170004200B2EB410F02D20246084611464A0045
:1001800042D0C30DDDB2C1F3C752AD1A202D35DA0E
:10019000C1F3160141F4000204B15242C5F1200638
:1001A00002FA06F12A411044B3EBD05F23D0C4B168
:1001B000012DA0EBC35009DCF0BC4FF0004202EA75
:1001C000C35200F50000DBB200F046BB400000F176
:1001D000807000EBC350A0F1807040EAD1704900FC
:1001E00009E0490841EAC071A0EBC35000F50000E6
:1001F000400800EBC350F0BC00F025BB6142012277
:1002000002EB4101001BF6E7F0BC704781F00041B2
:10021000AAE780F00040A7E780EA010210B502F0EB
:100220000043400026D04A0023D04FEA106101EB82
:100230001261C0F35600C2F3560240F4000042F4CB
:100240000002A0FB0220A1F17F014FEA004014044C
:1002500001D000F1010050EA124001D44000491ED3
:10026000C2B20C0604EBD010401C4008802A02D019
:1002700003E0002010BD20F00100002900DA00207A
:10028000184310BD30B480EA010202F0004530F09E
:10029000004221F0004015D0A0B1C0F3C753C2F313
:1002A000C754C2F31601C0F31600E41A41F400016A
:1002B00040F400027D34914201D3641C00E0490007
:1002C000002C02DA30BC002070474FF400000023FD
:1002D000914201D3891A034340084FEA4101F7D103
:1002E00051B1914202D14FF0004105E002D24FF0EE
:1002F000010101E06FF0010103EBC450284430BC60
:1003000000F0A1BA2DE9FE4F804681EA0300C00F3C
:100310000C46009021F0004123F00045B8EB0200AC
:10032000A94105D24046214690461C460B4602464E
:1003300023F00040104304D14046214603B0BDE8FD
:10034000F08F270DC7F30A00C3F30A510290401A39
:100350000190402866DAC3F3130040F4801B009834
:10036000924620B10023D2EB030A63EB0B0B0198FA
:100370005946C0F14002504600F034FA06460D4698
:1003800050465946019A00F04CFA10EB08006141C2
:10039000002487EA115284EAE7731A433BD0009A9B
:1003A0003AB3019A012A4FEA075210DC001B61EBB5
:1003B00002014FF0004202EA0752CDE90042001C60
:1003C00041F5801132462B4600F08CFAB6E7001B4F
:1003D00061EB0201001C41F5801300185B412018FD
:1003E000A2F5001747EB030140EAD570B6196D413D
:1003F00011E06D084FEA360645EAC0754FEA07522C
:10040000001B61EB0201001C41F5801149084FEA15
:1004100030000019514132462B4603B0BDE8F04F81
:1004200000F053BA0098012240000023D0EB0202F2
:1004300063EBE073009821464FEAE074B8EB0000EC
:1004400061EB0401E9E783F000435BE781F00041E1
:1004500058E72DE9FE4F81EA030404F0004421F03F
:10046000004100944FF0000B23F0004350EA0104D8
:1004700002D052EA030404D10020014603B0BDE8D3
:10048000F08FC3F30A54C1F30A552C44A4F2F33499
:100490000194A0FB0254C1F3130141F48011C3F392
:1004A000130343F4801301FB024400FB034E840A50
:1004B000970A44EA815447EA8357A4FB07680295E8
:1004C0008D0A05FB07854FEA932C04FB0C54270586
:1004D000029D4FEA065847EA1637B5EB08056EEB62
:1004E000070C870E920E47EA811742EA8312A7FB98
:1004F0000201B6EB0B0164EB00042B0D43EA0C3355
:100500005E1844EB1C50DA465146E7FB0201C5F386
:1005100013044FEA0B3343EA14534FEA0432019CAD
:1005200043EA0603A4F10C040294009CCDE900B454
:1005300000F0D8F9A2E72DE9F04D81EA030404F0B8
:10054000004B21F0004514464FF0000A23F0004113
:1005500050EA050220D054EA01021DD0C5F30A5723
:100560000246C5F31303C1F31300C1F30A5640F466
:10057000801543F48013A7EB0608101BD64608F23B
:10058000FD3873EB050002D308F1010801E0921871
:100590005B41B8F1000F03DA00200146BDE8F08DA1
:1005A00000204FF48011064684460EE0171B73EBC3
:1005B000050705D3121B63EB050306434CEA010C48
:1005C00049084FEA300092185B4150EA0107EDD12B
:1005D00052EA030012D082EA040083EA05010843CC
:1005E00003D100224FF0004308E0101BAB4102D2C0
:1005F0000122002302E06FF0010253101AEB060003
:100600004CEB085110EB0A0041EB0B01BDE8F04D3B
:1006100000F05BB9C10F80EAE0700844CA07962376
:10062000002100F019B996230022114600F014B9F8
:100630000EB5C10F80EAE0700844CA07002140F2FD
:1006400033438DE80E000A460B4600F04BF903B029
:1006500000BD0EB540F2334102910021CDE90011F9
:100660000A460B4600F03EF903B000BD00F0004220
:1006700020F00040C10DC0F3160040F400007F29B7
:1006800001DA00207047962903DCC1F19601C840C9
:1006900001E096398840002AF4D04042704720F0AB
:1006A0000040C10DC0F3160040F400007F2901DABC
:1006B00000207047962903DCC1F19601C8407047BD
:1006C00096398840704770B5C1F30A5201F0004571
:1006D0000024C1F3130140F2FF3341F480119A4228
:1006E00001DA002070BD40F233439A42A2F2334255
:1006F00003DC524200F085F800E090402C43F1D03A
:10070000404270BDC1F30A5210B5C1F3130140F26B
:10071000FF3341F480119A4201DA002010BD40F20B
:1007200033439A42A2F2334203DC524200F069F8AA
:1007300010BD904010BD00F0004230F000400AD0E3
:10074000C10D01F56071C0F3160042EA0151C20803
:1007500040071143704700200146704730B500291B
:1007600004DB4FF00044404264EB0101002B04DB4A
:100770004FF00044524264EB03038B4208BF8242B5
:1007800030BD000001F0004330B421F0004150EAD8
:10079000010206D00A0DA2F56072C1F31301002A0E
:1007A00002DC30BC00207047440F44EAC104C100A1
:1007B000E01830BC00EBC25000F045B8002801DB67
:1007C000C0F10040002901DBC1F1004181427047C6
:1007D000002801DBC0F10040002901DBC1F100412C
:1007E00088427047202A04DB203A00FA02F10020F8
:1007F00070479140C2F1200320FA03F3194390405F
:100800007047202A04DB203A21FA02F000217047C9
:1008100021FA02F3D040C2F1200291400843194668
:100820007047202A06DBCB17203A41FA02F043EA50
:10083000E07306E041FA02F3D040C2F12002914099
:100840000843194670470029A8BF7047401C49005B
:1008500008BF20F00100704710B4B0FA80FC00FA25
:100860000CF050EA010404BF10BC704749B1CCF150
:10087000200421FA04F411FA0CF118BF01212143DC
:100880000843A3EB0C01CB1D0106000A002BBEBFE1
:10089000002010BC704700EBC35010440029A4BFD7
:1008A00010BC7047401C490008BF20F0010010BC7C
:1008B0007047420005D0C0F3C7525242914201DC5A
:1008C0000020704700EBC150704710B5002B08DACC
:1008D000401C41F1000192185B411A4301D120F004
:1008E000010010BD2DE9F04D92469B4611B1B1FAC1
:1008F00081F202E0B0FA80F220329046FFF772FFF8
:1009000004460F4640EA0A0041EA0B0153465A46A4
:10091000084303D120463946BDE8F08D114653EA1D
:10092000010015D0C8F140025046FFF76AFF0546A6
:100930000E46504659464246FFF754FF084301D041
:10094000012000E00020054346EAE0762C433743CF
:100950000A984FEA4453A0EB08004FEAD4240A3027
:100960004FF0000244EA47544FEAD72502D5002051
:100970000146D1E7010510196941DDE90845001973
:100980006941BDE8F04DA0E770B521F00043034395
:100990000CD0C1F30A550024D5EB040564EB040325
:1009A000D617AD1AB34102DB0020014670BD2018F6
:1009B00041EB025170BD0000064C074D06E0E068B7
:1009C00040F0010394E8070098471034AC42F6D396
:1009D000FFF7B2FBD8AE0208F8AE0208F0B4002868
:1009E00002DCF0BC00207047C0F3C751C0F3160012
:1009F00040F40000CA0701D14000491E3F2202EB2B
:100A00006105002211464FF4000626FA01F3134453
:100A1000D418844201D8001B1A464000491C1729EB
:100A2000F3DD5100814202D24FF0FF3100E000219E
:100A300002EBC550F0BCFFF706BF70B501EB020436
:100A400010F8015B15F0070301D110F8013B2A11E2
:100A500006D110F8012B03E010F8016B01F8016BCF
:100A60005B1EF9D12B0705D40023521E0FD401F8C9
:100A7000013BFAE710F8013B02F10202A1EB03038C
:100A800003E013F8015B01F8015B521EF9D5A142A6
:100A9000D6D3002070BD000008B50121084604F03F
:100AA000FBFF01214FF4017005F026F84FF40040E0
:100AB00004F0E6FF1020ADF8000000208DF80300E0
:100AC0006946024802F000FB08BD00000008014032
:100AD00010B5FFF7E1FF00F001F810BD00B591B0CF
:100AE000334801F071F933480690334807900020ED
:100AF00008900120099000200A9080200B9040006F
:100B00000C9080000D9020200E9000020F9000208D
:100B1000109006A9264801F0FFF90121244801F0B0
:100B200047F90020019001208DF808008DF8090098
:100B30004FF4602003900020049001208DF81400F1
:100B400001A91C484C3800F06FF80523012204214C
:100B500018484C3800F090F8002116484C3800F046
:100B600043F8012113484C3800F033F801211148B3
:100B70004C3800F023F80F484C3800F0D9F800BF8B
:100B80000C484C3800F045F80028F9D109484C3899
:100B900000F0DEF800BF07484C3800F030F80028BD
:100BA000F9D1012103484C3800F0C7F811B000BD5D
:100BB000080002404C2401403201002021B182682B
:100BC00042F00102826003E0826822F0010282604A
:100BD000704721B1826842F48072826003E08268CB
:100BE00022F480728260704721B1826842F48012E0
:100BF000826003E0826822F48012826070470146BE
:100C000000208A6812F0040F01D0012000E00020CB
:100C10007047014600208A6812F0080F01D00120B9
:100C200000E000207047000030B50246002000239D
:100C300050680F4C20400D790C6844EA052420438D
:100C4000506090680B4C2040D1E902542C434D7900
:100C500044EA450420439060D06A20F470000C7C84
:100C6000641EE4B2234340EA0350D06230BD00006A
:100C7000FFFEF0FFFDF7F1FFF0B504460D46002042
:100C80000021092D11DDE068A5F10A0606EB4607F3
:100C9000072606FA07F18843A5F10A0606EB460681
:100CA00003FA06F10843E0600CE0206905EB450714
:100CB000072606FA07F1884305EB450603FA06F115
:100CC00008432061072A0FDA606B561E06EB860781
:100CD0001F2606FA07F18843561E06EB860605FA1C
:100CE00006F10843606322E00D2A0FDA206BD61F5D
:100CF00006EB86071F2606FA07F18843D61F06EB88
:100D0000860605FA06F10843206310E0E06AA2F1C6
:100D10000D0606EB86071F2606FA07F18843A2F1A7
:100D20000D0606EB860605FA06F10843E062F0BD03
:100D3000816841F008018160704721B1826842F406
:100D4000A002826003E0826822F4A0028260704701
:100D5000816841F004018160704700002DE9F04F87
:100D600093B09E4A11691069FFF756FA07469B4AED
:100D7000D168D068FFF750FA8046984A9168906829
:100D8000FFF74AFA83464146FFF7EEF90546394632
:100D9000FFF7EAF9064604F099FC0B908F49886842
:100DA0000B99FFF739FA11908C49C8680B99FFF736
:100DB00033FA1090894908690B99FFF72DFA0F90C3
:100DC000874905A804F012FE05AD0598089006981D
:100DD000099007980A9009990F98FFF71DFA0546A0
:100DE0000A991098FFF718FA06462946FFF70EFAF7
:100DF00004460A991198FFF70FFA054608990F98CB
:100E0000FFF70AFA06462946FFF700FA81460899D5
:100E10001098FFF701FA054609991198FFF7FCF9B8
:100E200006462946FFF7F2F982466E492046FFF74B
:100E3000F3F905466C4801682846FFF795F96A49B9
:100E4000086068494846FFF7E7F9054667480168C2
:100E50002846FFF789F96549086062495046FFF75F
:100E6000DBF90546624801682846FFF77DF96049CD
:100E70000860604A60495C48006808F02FFA5A49E7
:100E800008605C4A5C495948006808F027FA5749ED
:100E90000860584A58495648006808F01FFA5449F3
:100EA000086051480068FFF746FCCDE90401204680
:100EB00007F014F883465149FFF7AEF98046214602
:100EC000FFF7AAF90746FFF736FC05460E464349E9
:100ED000C86BFFF730FC0746494A4A4BFFF7B9FA9F
:100EE0002A463346CDE90001FFF70CFACDE90201AD
:100EF000DDE90423FFF706FACDE90601FFF742FC1E
:100F00000E903A480068FFF716FCCDE90401484608
:100F100006F0E4FF83463949FFF77EF90646494665
:100F2000FFF77AF90546FFF706FC074688462B4986
:100F3000086CFFF700FC0546314A324BFFF789FA8F
:100F40003A464346CDE90001FFF7DCF9CDE902015D
:100F5000DDE90423FFF7D6F9CDE90601FFF712FC1E
:100F60000D9023480068FFF7E6FBCDE904015046E9
:100F700006F0B4FF21490090FFF74EF95146019069
:100F8000FFF74AF98346FFF7D6FBCDE90201134983
:100F9000486CFFF7D0FB1A4A1A4BCDE90001FFF766
:100FA00058FA0546DDE90223FFF7ACF90746DDE90B
:100FB0000423FFF7A7F9CDE90601FFF7E3FB0C9047
:100FC000114800900648DDE90C320E9904F0E3FB6D
:100FD000034804F0A3FB13B0BDE8F08F741C00209D
:100FE000100300206F12033A2C030020300300206E
:100FF00034030020295C0FBD295C0F3D3333333FA0
:10100000D9999DA0A8C7413F6F12833A2DE9F04FAF
:101010008DB000F03DF99248FFF7A0FE914990484D
:1010200004F04AFC8F494868FFF785FB064608F044
:1010300035FF0446FFF7A6FB0B908A490868FFF7C7
:101040007AFB064608F02AFF0446FFF79BFB0C904C
:1010500084494868FFF76FFB064608F0E9F8044644
:10106000FFF790FB0A907F490868FFF764FB06468C
:1010700008F0DEF80446FFF785FB09907A48C0784F
:1010800000287DD178484078002879D07749B1F997
:101090000400FFF7BFFA07460A99FFF7BDF80646B6
:1010A0000C99FFF7B9F804467049B1F90200FFF74F
:1010B000B1FA81460C99FFF7AFF880460B99FFF71C
:1010C000ABF806466949B1F90000FFF7A3FA80467C
:1010D0000999FFF7A1F807463146FFF745F805469D
:1010E0002146FFF793F808906049B1F90400FFF733
:1010F00091FA06460B99FFF78FF804465B49B1F960
:101100000200FFF787FA06460A99FFF785F80546B9
:101110002146FFF729F807900898FFF70CFB824655
:101120008B460798FFF707FB804652465B4607F061
:1011300055FE064601F0CAF981F000410446FFF76A
:1011400021FB06904A49486CFFF7F5FA0646494AE2
:10115000494BFFF77EF9804600224FF08043FFF7AE
:1011600078F94FF06042454BCDE90001FFF771F986
:10117000824601F0ABF9CDE902013A49886800E006
:1011800047E0FFF7D8FA0446DDE90223FFF7BAF893
:10119000CDE90401FFF7F6FA32498860384906982C
:1011A000FFF716FB05D22F4988683649FFF706FB83
:1011B0000AD334490698FFF701FB19D229498868F8
:1011C0002F49FFF705FB13D22F490698FFF724F8A4
:1011D00006462448806880F000452C492846FFF7E1
:1011E0001BF804463146FEF7BFFF1E4988600FE03A
:1011F00025490698FFF710F804461A4988682349DC
:10120000FFF70AF805462146FEF7AEFF154988604C
:101210000BE014498868FFF78EFA064601F056F98C
:101220000446FFF7AFFA0F4988600E494868FFF798
:1012300082FA064601F04AF90446FFF7A3FA094983
:1012400048600868FFF777FA064601F03FF9044660
:10125000FFF798FA034908600DB0BDE8F08F000071
:1012600010030020781E0020741D00203803002089
:10127000741C0020D9999DA0A8C7413F4D62503FE2
:101280000000B4420000B4C26F12033BEE7C7F3F0B
:101290002DE9FF4103F0E6F93C4802F0EDF83C4946
:1012A000B1F90000FFF7C4F906460F460520394999
:1012B000394BCDE90030394B394ACDE9021030467F
:1012C000394602F04DFF0446FFF75CFA304988606A
:1012D000B1F90200FFF7ACF906460F4605202D498B
:1012E0002D4BCDE900302D4B28332D4A2832CDE946
:1012F00002103046394602F033FF0446FFF742FA47
:101300002349C860B1F90400FFF792F906460F4679
:1013100005202049204BCDE90030204B5033204A96
:101320005032CDE902103046394602F019FF04462A
:10133000FFF728FA1649086108461A4AC16D1A488B
:10134000006803F075F91249C8630846C06B164976
:1013500008600F48134A016E1448006803F068F9EA
:1013600001460B480164006C1049086008480D4AAA
:10137000416E0F48006803F05BF901460448416480
:10138000406C0B490860BDE8FF8100003803002075
:10139000741C0020E8020020C0020020001E002073
:1013A000881D0020CBA1C53E20030020240300207F
:1013B000280300202DE9FF5F0446B249086CFFF7BF
:1013C000BAF9B14AB14BCDE90001FFF742F8054641
:1013D0000E46AF49486AFFF7AEF907462A4633463C
:1013E000FFF731F8CDE90201FFF7CCF98146A549B5
:1013F000C86BFFF7A0F90746A34AA44BFFF729F8EB
:10140000CDE90001A249C86EFFF795F90546DDE96F
:101410000023FFF718F8CDE90201FFF7B3F9824680
:101420009849486CFFF787F90746974A974BFFF7AB
:1014300010F8CDE902019649D1F8B400FFF77BF925
:10144000CDE90001DDE90223FEF7FDFF0546FFF7C8
:1014500099F983468F4A9049484607F03FFF8146F5
:101460008C4A8D49504607F039FF8246894A8A499D
:10147000584607F033FF834688492046FEF702FFAF
:1014800006464946FEF7C8FE05468148416B284698
:10149000FEF76AFE01467E48416380492046FEF71A
:1014A000F1FE06465146FEF7B7FE05467848C16F85
:1014B0002846FEF759FE01467548C1677749204620
:1014C000FEF7E0FE06465946FEF7A6FE05467048C2
:1014D000D0F8C4102846FEF747FE01466C48C0F815
:1014E000C41001466E4A486B6E4907F0F7FE01468C
:1014F0006748416301466A4AC86F6A4907F0EEFED1
:1015000001466348C1670146654AD1F8C400654990
:1015100007F0E4FE01465E48C0F8C4100146886A40
:101520004946FEF779FE01465948C1630146086FF6
:101530005146FEF771FE01465548C0F88410014639
:10154000D1F8B8005946FEF767FE01465048C0F88A
:10155000CC100246516BD06AFEF75EFE01464C4845
:1015600001640246D16F506FFEF756FE01464848AF
:10157000C0F888100246D2F8C410D2F8BC00FEF7BA
:101580004BFE01464248C0F8D01021464348FEF7C2
:1015900079FE06463B4A116CD06CFEF737FE0746D3
:1015A0003B48016B3846FEF737FE05463146FEF7ED
:1015B00033FE01463648416421463848FEF762FE54
:1015C0000646304AD16B906CFEF720FE0746304845
:1015D000816F3846FEF720FE05463146FEF71CFEB9
:1015E00001462B48C0F88C1021462C48FEF74AFED5
:1015F0000646244A516C106DFEF708FE0746244843
:10160000D0F8C0103846FEF707FE05463146FEF713
:1016100003FE01461E48C0F8D4100246116CD06B80
:10162000FEF7A2FD05461A48416C2846FEF79CFDD0
:101630000146174881640246D2F88810D2F8840027
:10164000FEF792FD05461248D0F88C102846FEF7AA
:101650008BFD01460E48C0F890100246D2F8D41017
:10166000D2F8CC00FEF780FD01460948C0F8D8103A
:101670000448016CC164C16B8164416C0165BDE8C3
:10168000FF9F0000741C002030689DC8FE3F9F3FF4
:10169000041F0020000096C3000096436F12033B16
:1016A0000000A0C10000A04108B5002000900C4837
:1016B0000C490860012269460948103804F076FC9C
:1016C000BDF80000A0F5A061053908D040F2055032
:1016D0000090012269460248103804F07BFC08BDE6
:1016E0000000020808ED00E000BFFEE70146CAB2B4
:1016F0000B1243EA022070472DE9FF415E48007853
:1017000002287CDB5D4A11680098FEF77FFD0646E3
:101710005A4A51680198FEF779FD0746574A916881
:101720000298FEF773FD05465549FFF751F809D3B6
:10173000524A91680298FEF769FD05465149FFF744
:101740003DF834D200210298FFF742F814D24B49F9
:1017500088680021FFF732F80ED249490298FEF757
:1017600055FD0546454881684648FEF74FFD8046D1
:101770002946FEF7F9FC044600210298FFF71EF8FF
:101780001BD23E4988680021FFF722F815D23C4958
:101790000298FEF7E9FC0546384881683848FEF7AC
:1017A00035FD80462946FEF7DFFC044605E0334A56
:1017B00091680298FEF72AFD04462F4908693146D0
:1017C000FEF7D2FC2C490861886D3946FEF7CCFC47
:1017D000294988650846406980F000450A465169F4
:1017E00010692A4607F07AFD2349086108464069D6
:1017F00080F000450A465169906D2A4600E02FE0CE
:1018000007F06CFD1C4988650A4611699068FEF76F
:1018100003FD0546184948683146FEF7FDFC804641
:101820002946FEF7A1FC144948620A46916D106DE5
:10183000FEF7F2FC05461049C86C3946FEF7ECFC91
:1018400080462946FEF790FC0B49C866D1F8940003
:101850002146FEF7E1FC0849C1F8B40000200870F9
:1018600005480078401C044908700748FFF7A2FDAE
:1018700003F054F9BDE8FF81041F0020781E00200A
:1018800000003443000034C36F12033B10B5002442
:1018900022E19748008800F00F009649087008463A
:1018A0000078E8BB9448006894490880084600889E
:1018B00000F03000924908809048008800F44050C1
:1018C0008E4908808F49D1F8001C89B24BF6BF724F
:1018D00001EA020080F4005080F0200040F4004152
:1018E00041F08001874AC2F8001C8148008810F04E
:1018F000100F38D18048006880B248F60F7100EAB6
:1019000001001146C1F8000C02F0A4FC7A490968F4
:1019100089B24BF6BF7201EA02007849098800E0FB
:101920009AE011F4805F01D080F4805073490988F7
:1019300011F4005F01D080F400507149098811F062
:10194000100F01D080F010006D49098811F0200FB0
:1019500001D080F0200081B241F4004141F08001CB
:10196000654A116010BD6448006884B214F4006FC9
:1019700037D061480068C0F30E0048F68F7100EA66
:1019800001006049C1F8000C04F0BAFD5A49096829
:1019900089B24BF6BF7201EA02005849098811F476
:1019A000805F01D080F480505449098811F4005FB1
:1019B00001D080F400505249098811F0100F01D075
:1019C00080F010004E49098811F0200F01D080F0FE
:1019D000200081B241F4004141F08001464A11608B
:1019E000C0E714F4004F77D043480068C0F30E00FE
:1019F00048F68F7100EA01004249C1F8000C03F07B
:101A000035FD3D49096889B24BF6BF7201EA020013
:101A10003A49098811F4805F01D080F48050374939
:101A2000098811F4005F01D080F40050344909881E
:101A300011F0100F01D080F010003149098811F029
:101A4000200F01D080F0200081B241F4004141F02C
:101A50008001294A116085E726480078294901EB71
:101A60008000D0F8000C84B214F4004F18D0214844
:101A7000007801EB8000D0F8000CC0F30E0048F6AF
:101A80008F7108401B4909781E4A02EB8101C1F899
:101A9000000C18490978491E1B4A52F8210080475A
:101AA00014F0800F18D013480078164901EB80001D
:101AB000D0F8000C80B248F60F7108400D49097843
:101AC000104A02EB8101C1F8000C0A490978491E4D
:101AD0000E4A52F8210080470D48006880B2044940
:101AE000088010F4004F7FF4D4AE00BF3AE7000046
:101AF0008C00002018000020005C00402C0000201A
:101B00002E000020005000407000002054000020F3
:101B1000445C00402DE9F04100247148B0F90E000A
:101B200040F2DC51091A6E48B0F91400C0EBC00055
:101B3000143091FBF0F52846FEF76CFD694908600A
:101B40006748B0F90C00A0F2DC506549B1F91410F7
:101B5000C1EBC101143190FBF1F52846FEF75AFDA7
:101B6000604948605E48B0F91000B0F5966F0BDD33
:101B70005D48007901280ED001205B4908715B485F
:101B800080685849886006E0002057490871574826
:101B90008068544988605248B0F91200B0F5C86FA7
:101BA00005DC4F48B0F91200B0F5AF6F32DA4C489F
:101BB000408A40F2DC51081A04B22046FEF72AFDA2
:101BC00007464B49FEF75EFB06464A49FEF724FBF3
:101BD0000546444881682846FEF7C6FA41498860B0
:101BE00088684549FEF7F4FD07D23E4988684349B5
:101BF000FEF70CFB3B4988600CE03A498868404995
:101C0000FEF7DCFD06D2374988683C49FEF7ACFA9E
:101C1000344988603448407A00285BD039480078DD
:101C2000012806D0012037490870374800682D493F
:101C3000C8602B48B0F91000B0F5C86F05DC284823
:101C4000B0F91000B0F5AF6F47DA2548B0F91000D1
:101C5000B0F5C86F12DD2249B1F91010A1F5C860C6
:101C6000FEF7D8FC06462949FEF70CFB05461D4841
:101C7000C1682846FEF778FA1A49C8601848B0F9D2
:101C80001000B0F5AF6F12DA1549B1F91010A1F5D7
:101C9000AF60FEF7BFFC06461C49FEF7F3FA0546A7
:101CA0001048C1682846FEF75FFA0E49C8600D4922
:101CB000C8681749FEF78CFD02D215480949C8606B
:101CC0000849C8681349FEF779FD06D2114805494D
:101CD000C86002E000200B490870BDE8F0810000F8
:101CE000301D0020E01F0020741D0020781E002001
:101CF00000004843CDCCCC3D000034430000B44349
:101D0000000034C3F8030020E80100200000FA437B
:101D100000004842000020410C4901EB8001D1F84D
:101D2000001C11F4804F10D0084901EB8001D1F85C
:101D3000001C89B248F68F7211404CF280021143A8
:101D4000024A02EB8002C2F8001C704700500040BB
:101D50000C4901EB8001D1F8001C11F0400F10D0AC
:101D6000084901EB8001D1F8001C89B248F68F7256
:101D7000114048F2C0021143024A02EB8002C2F84D
:101D8000001C704700500040084901EB8001D1F869
:101D9000001C89B248F68F62114048F2800211435C
:101DA000024A02EB8002C2F8001C7047005000405B
:101DB00021B1026842F00102026004E002684FF6BD
:101DC000FE731A400260704701684FF6FE721140C0
:101DD00001600021016041608160C1604A49884220
:101DE00008D149490839496841F00F01464A083A83
:101DF000516088E044491431884208D14249083989
:101E0000496841F0F001404A083A51607BE03E49A0
:101E10002831884208D13C490839496841F4706149
:101E2000394A083A51606EE037493C31884208D15E
:101E300035490839496841F47041334A083A5160DC
:101E400061E031495031884208D12F490839496849
:101E500041F470212C4A083A516054E02A49643117
:101E6000884208D128490839496841F47001264A56
:101E7000083A516047E024497831884208D1224924
:101E80000839496841F070611F4A083A51603AE0E8
:101E90001E49884208D1A0F10401096841F00F01F0
:101EA0001B4AC2F804142EE018491431884207D1A5
:101EB0001849096841F0F001154AC2F8041422E0FB
:101EC00012492831884207D11249096841F47061EA
:101ED0000F4AC2F8041416E00C493C31884207D17D
:101EE0000C49096841F47041094AC2F804140AE037
:101EF00006495031884206D10649096841F47021EB
:101F0000034AC2F804147047080002400804024063
:101F1000000002400404024010B50022026847F6A7
:101F2000F0739A430C6A8B6823430C6923434C6912
:101F300023438C692343CC6923434C6A23438C6A33
:101F400023431A430260CB6843600B6883604B688D
:101F5000C36010BD2DE9F0472948006800F1100565
:101F60002E8827480068077AEEB9042F1BD1254830
:101F70000078012812D100212348006880B200F1C6
:101F80000200224A42F810104FF030002049088029
:101F900000BF4FF000001B49087003E00727102026
:101FA0001B49088027E0AC88A64201D8042000E045
:101FB00002200746B44200D93446A0B2A968884737
:101FC0008046002001F084F98146A2B201464046D5
:101FD00005F068FFA1B2002004F0CCF92888001BAE
:101FE00028806888204468803020094908800002E1
:101FF0000849088000BF024909680F72BDE8F087F0
:102000001C00002014000020505C004000600040D4
:102010002E0000202C0000202DE9F0412948006806
:1020200000F110042688A068C0B1BEB1A588B542F1
:1020300000D93546A8B2A168884707462088401BCA
:102040002080608828446080002001F01DF98046CF
:10205000AAB20146384603F031FA00BF208850B1D9
:102060004FF44050184908800021084604F082F9D6
:102070003020164908802088A188884204DB03208C
:102080001049096808721AE02088002804DD05203C
:102090000C490968087212E0208880B906200949B5
:1020A0000968087200210A48006880B200F1020045
:1020B000084A42F810104FF0300004490880BDE88B
:1020C000F08100001C0000202C0000202E000020C9
:1020D000505C00400060004070B504462088A52890
:1020E0007ED160885A28FBD1A0880A28F8D1A08A1E
:1020F0001228F5D1E08A3428F2D1E088302804D0C3
:1021000031282FD032286CD159E0217A090209B246
:10211000628941EA0200FEF77DFA05464449FEF76E
:10212000B1F844498862217B090209B2E28941EA97
:102130000200FEF76FFA05463D49FEF7A3F8014697
:102140003C48C162217C090209B2628A41EA02006C
:10215000FEF760FA05463649FEF794F80146354821
:10216000016360E0217A090209B2628941EA020052
:10217000FEF750FA05462E49FEF784F82D49086708
:10218000217B090209B2E28941EA0200FEF742FA24
:1021900005462749FEF776F8014626484167217C27
:1021A000090209B2628A41EA0200FEF733FA0546E3
:1021B0001F49FEF767F801461E48816733E0217A20
:1021C000090209B2628941EA0200FEF723FA0546D4
:1021D0001749FEF757F81749C1F8B800217B01E00D
:1021E00025E01FE0090209B2E28941EA0200FEF798
:1021F00011FA05460E49FEF745F801460D48C0F8AC
:10220000BC10217C090209B2628A41EA0200FEF791
:1022100001FA05460649FEF735F801460548C0F8BB
:10222000C01000E000BF00BF01200349087270BD6C
:102230000000C842041F0020741D00202DE9F05F3B
:102240009848006845780027BA46062D1AD1954867
:102250000068007810F07F0F13D1924909688878E0
:10226000012803D190490968CF690AE0022803D107
:102270008D4909680F6A04E0032802D18A49096878
:102280004F6A91E0F5BB874800684088D0BB85481D
:102290000068C088022859D182480068007988BB4C
:1022A00080480068007810F07F0F05D17D480068F5
:1022B000808808B97D4F77E07A480068007800F0A0
:1022C0007F0001280ED17749096848797649096865
:1022D0008A6900219047C0BB72480068807AA0B329
:1022E000724F61E06F480068007800F07F000228BC
:1022F0005AD16C480068407900F00F0669480068C0
:10230000407900E022E000F07009664800684079FA
:1023100010F0800F07D0664800EB8600D0F8000C64
:1023200000F0300806E0624800EB8600D0F8000CB0
:1023300000F440585F480078B04235D9B9F1000F39
:1023400032D1B8F1000F2FD0584F2DE0082D07D112
:1023500054480068007810F07F0F25D1564F23E0D5
:102360000A2D21D14F480068007800F07F00012835
:102370001AD14C480068807AB0B14A480068408859
:1023800090B948480068007970B946480068C0882C
:10239000012809D1434909684879434909688A698C
:1023A0000021904700B9454F57B13E480068A0F85A
:1023B00012A03C48006887610020B84700240FE065
:1023C000384A12685078384A1268116988470446BA
:1023D000032C05D10920334909680872BDE8F09F34
:1023E00030480068008AA0F57F41FF3904D10920F8
:1023F0002C4909680872F1E7022C03D029480068CB
:10240000008A20B90820274909680872E6E72548AC
:102410000068007810F0800F3BD022480068B0F8C8
:1024200006B020480068008A584504D91D4909684B
:10243000A1F810B023E01B480068008A1949096818
:10244000C98888421BDA17480068008A164909685B
:1024500091F82C10884203DA0020194908700EE028
:1024600010480068008A1049096891F82C1090FB08
:10247000F1F201FB120010B90120114908700A485D
:10248000006890F82C10074800688182FFF762FD11
:1024900006E003200349096808720003094908801F
:1024A00000BF9BE71C000020200000203D680208C0
:1024B000005000409C000020C1670208116802081B
:1024C000140000202C000020704700002DE9F0418E
:1024D00004460D464FF0C042054B20462946FEF704
:1024E0002AF806460022034BFDF7B3FFBDE8F08152
:1024F000FB210940008066402DE9FF5F86B014464D
:102500001D464FF0010A4FF0000003900490059023
:102510004FF00109804600BF83460246134620461D
:102520002946FEF71BF909D285F00040CDE90040AD
:1025300020460199FEF7C7F8804604E02046294668
:10254000FEF7C1F880464046FEF772F822462B4659
:10255000CDE90001FDF77AFF06460F460022574BF2
:1025600030463946FDF775FFCDE90001FEF7CAF8A0
:10257000834607E009EB89004FEA40090AF10100B0
:1025800000F0FF0A0A2098FBF0F090FBF9F0002819
:10259000F0D142F2107098FBF0F00A2190FBF1F2BA
:1025A00001FB1200C0B28DF80C004FF47A7098FB5A
:1025B000F0F090FBF1F201FB1200C0B28DF80D00BB
:1025C000642098FBF0F090FBF1F201FB1200C0B226
:1025D0008DF80E000A2098FBF0F090FBF1F201FB61
:1025E0001200C0B28DF80F000A2098FBF0F100FB3A
:1025F0001180C0B28DF810002E208DF811004FF41C
:102600007A70BBFBF0F00A21B0FBF1F201FB120083
:10261000C0B28DF812006420BBFBF0F0B0FBF1F209
:1026200001FB1200C0B28DF813000A20BBFBF0F0D2
:10263000B0FBF1F201FB1200C0B28DF814000A20C9
:10264000BBFBF0F100FB11B0C0B28DF8150000210A
:102650001498801D03AA1154894608E003A810F8B5
:102660000900303003A901F8090009F10109B9F1A5
:102670000A0FF3DB0022134620462946FEF76EF8C8
:1026800008D20AF1010000F0FF0A2D20CAF105016D
:1026900003AA50542E208DF8110000211498801D9B
:1026A00003AA1154CAF1050003A94218DDE9061076
:1026B00002F00EFE0AB0BDE8F09F00000088C340A3
:1026C0000346062106221248018812480288A3B157
:1026D000012B1AD132B9A1F56E40EE3800D1704706
:1026E0000120FCE739B9A2F56E40EE3801D1012096
:1026F000F5E70020F3E7AB20F1E709B90020EEE7AA
:102700000AB90120EBE7AB20E9E70020E7E700008A
:10271000000001080008010810B504240B4800F06F
:1027200003FB0446042C01D0204610BD00210748BD
:1027300000F046FB0446042C01D02046F5E704488F
:1027400000F0F2FA04462046EFE70000000001081E
:102750000008010810B505F05DFD044601F0D4FD48
:10276000204610BD2DE9F84F074689460425DFF8BD
:10277000D4A0354800904FF00008002400264FF008
:10278000000B0020FFF79CFF8046B8F1010F04D139
:10279000DFF8B4A02D4800900AE0B8F1000F04D192
:1027A000DFF8A8A02848009002E0AB20BDE8F88F31
:1027B0004EF6EE61504600F003FB0546042D01D0B5
:1027C0002846F3E701F0A0FD4946384600F020FA1C
:1027D0000646042E01D03046E8E700241DE01C48E0
:1027E00030F81400B84216D0194931F814001949CC
:1027F00000F014F98346BBF1010F0CD0144931F8F5
:1028000014001449098889B200F002FA0646042E21
:1028100001D03046CAE7601C84B24B2CDFDB009845
:1028200000F082FA0546042D01D02846BEE70021BB
:10283000504600F0C5FA0546042D01D02846B5E7FC
:102840002846B3E7FF03010800000108000801085B
:10285000FC0100203801002010B509490888094909
:1028600000F0DCF8064948880649891C00F0D6F8D3
:10287000034988880349091D00F0D0F810BD000005
:10288000FC010020941C002038B54B49488A694659
:1028900000F0C4F8BDF8000000B938BDBDF9000073
:1028A000FDF7B8FE04464549FDF7ECFC4449886253
:1028B0004149888A694600F0B1F8BDF90000FDF78A
:1028C000A9FE04463F49FDF7DDFC01463C48C162D4
:1028D0003949C88A694600F0A1F8BDF90000FDF742
:1028E00099FE04463549FDF7CDFC014634480163A5
:1028F0003149088B694600F091F8BDF90000FDF7F9
:1029000089FE04462D49FDF7BDFC2D4908672A497B
:10291000488B694600F082F8BDF90000FDF77AFEA9
:1029200004462849FDF7AEFC014625484167224987
:10293000888B694600F072F8BDF90000FDF76AFE69
:1029400004461E49FDF79EFC01461D4881671A4951
:10295000C88B694600F062F8BDF90000FDF75AFE29
:1029600004461649FDF78EFC1549C1F8B800124916
:10297000088C694600F052F8BDF90000FDF74AFEE8
:1029800004461049FDF77EFC01460D48C0F8BC1016
:102990000949488C694600F041F8BDF90000FDF78F
:1029A00039FE04460549FDF76DFC01460448C0F8B0
:1029B000C01000BF71E70000FC0100200000C84209
:1029C000041F002000007A4410B51249C88812493B
:1029D00000F024F80F4908890F49891C00F01EF8FF
:1029E0000C4948890C49091D00F018F809498889E3
:1029F0000949891D00F012F80649C88906490831BD
:102A000000F00CF80349088A03490A3100F006F87F
:102A100010BD0000FC010020DC1C00202DE9F04767
:102A200006460F46002545F255584FF00109124C55
:102A3000A2460020FFF744FE0546AB2D01D1BDE8BC
:102A4000F0870D4800EBC52A0C480068841E0BE097
:102A5000B4F80080B04506D134F8020C00B23880DA
:102A60004FF0000904E0241F0AF102008442EFD86D
:102A700000BF4846E3E70000000001083C010020D9
:102A800010B50B4AB2F920100A4A108800F004F978
:102A9000074AB2F92210074A508800F0FDF8044AAC
:102AA000B2F92410034A908800F0F6F810BD000037
:102AB000741C0020FC01002070B54548007A0028F5
:102AC0007ED00020424908724249886A4249FDF797
:102AD000A3FB0546FDF7E3FD84B24049488A21B2D5
:102AE00000F0DAF83B49C86A3D49FDF795FB054619
:102AF000FDF7D5FD84B23949888A21B200F0CCF8BF
:102B00003449086B3449FDF787FB0546FDF7C7FDDF
:102B100084B23249C88A21B200F0BEF82D49086F4C
:102B20002D49FDF779FB0546FDF7B9FD84B22B4928
:102B3000088B21B200F0B0F82649486F2849FDF70C
:102B40006BFB0546FDF7ABFD84B22449488B21B2EF
:102B500000F0A2F81F49886F1F49FDF75DFB05468D
:102B6000FDF79DFD84B21D49888B21B200F094F8D9
:102B70001849D1F8B8001849FDF74EFB0546FDF796
:102B80008EFD84B21549C88B21B200F085F8114939
:102B9000D1F8BC001249FDF73FFB0546FDF77FFD6C
:102BA00084B20E49088C21B200F076F80949D1F8B8
:102BB000C0000949FDF730FB0546FDF770FD00E058
:102BC00005E084B20549488C21B200F065F870BD7B
:102BD000741D0020041F00200000C842FC010020DA
:102BE00000007A4410B500240BE0074A126832F95D
:102BF0001410E21C054B33F8120000F04DF8601C75
:102C0000C4B2062CF1DB10BD94010020FC010020B1
:102C10002DE9F04104460F4604250026DFF86C80BC
:102C20000120FFF74DFD0646AB2E01D1BDE8F08136
:102C3000701C174901EBC02821E0164800680068A5
:102C4000401C17D139461348006800F0B9F8054612
:102C5000042D01D02846E9E721460E480068801C73
:102C600000F0AEF805460B480068001D09490860F1
:102C70002846DBE707480068001D0649086005484C
:102C800000684045D9D38020D0E70000FF07010845
:102C9000FEFF00083C01002070B506460C460025EA
:102CA000A1B23046FFF7B4FF0546802D04D1A1B292
:102CB0003046FFF757FD0546284670BDF8B500269B
:102CC000104D002710E0684607F090F904469DF883
:102CD000000000B90AE09DF80000304486B225F8F3
:102CE000024BAD1C781C87B2202FECDB00BF06B96D
:102CF000F8BD3146012003F03DFB012003F06CFBE1
:102D000000BFF5E78061004010B590B06946032030
:102D100005F040F884B22146684607F009FA03201E
:102D200003F0FEFA10B010BD30B5044604254FF490
:102D3000302000F071F80546042D17D10C480069C9
:102D400040F002000A49086108464461006940F009
:102D5000400008614FF4302000F05EF8054604485A
:102D6000006941F6FD71084001490861284630BDFF
:102D70000020024004200C49C96801F0010101292A
:102D800001D101200EE00849C96811F0040F01D0FB
:102D9000022007E00449C96811F0100F01D0032098
:102DA00000E0042070470000002002400348006952
:102DB00040F0800001490861704700000020024097
:102DC00070B504460D460426F00200F025F80646CC
:102DD000042E11D10948006940F00100074908613B
:102DE0002580F00200F018F806460448006941F614
:102DF000FE71084001490861304670BD0020024064
:102E0000024803494860034848607047230167450A
:102E100000200240AB89EFCD00B502460423FFF746
:102E2000A9FF034603E0FFF7A5FF0346521E012B4F
:102E300001D1002AF7D102B90523184600BD0000D0
:102E400010B51448407910B1022013490870114898
:102E5000407910B10220104908700E488079A8B15D
:102E60000C488079012804D0022806D003280CD110
:102E700007E004200849087007E0052006490870AB
:102E800003E006200449087000BF00BF01F0FEFA0D
:102E900010BD0000741D00202C0100202DE9F04120
:102EA000044600206949087069480068694908605B
:102EB0006948016867480068FDF7A8F90546674951
:102EC000FDF786FC07D2654963480068FDF74CF9B9
:102ED0006049086011E05F4801685F480068FDF7DD
:102EE00095F905465D49FDF773FC06D25B495A48E2
:102EF0000068FDF78BF95749086056480068564945
:102F0000086057480068574908602046FDF78BFB6A
:102F10000546504801682846FDF778F95049086091
:102F20000846016850480068FDF71EF94E490860E0
:102F30004E494B480068FDF7A5F94D49086000214E
:102F40004B480068FDF744FC17D849480068FDF776
:102F5000F2FB0546474A484BFDF700FC02D24748C2
:102F6000434908604FF07E5141480068FDF730FC4E
:102F700003D84FF07E503E49086000213C4800686D
:102F8000FDF71CFC15D83A480068FDF7D4FB054650
:102F9000384A3B4BFDF7E2FB02D23A48344908601D
:102FA000394933480068FDF709FC02D836483049F2
:102FB00008602F4801683548FDF72EF90546344969
:102FC0002B480068FDF728F906462A463146264870
:102FD000006806F083F92449086022480168204807
:102FE0000068FDF713F907462A4801683846FDF7DF
:102FF00013F905461C48016827480068FDF70CF9DD
:1030000007461748016825480068FDF705F980461E
:103010003946FDF7A9F806462946FDF7A5F82049E7
:10302000086020491E480068FDF7D2FB03D21D4806
:103030001B49086008E01C4919480068FDF7BEFB01
:1030400002D2194816490860BDE8F081F00100205D
:10305000E8010020BC010020C00100200000204247
:10306000E0010020E4010020D001002000004842DF
:10307000F80100209A9999999999B93FCDCCCC3D06
:103080009999B9BFCDCCCCBD000080BF00007AC5F6
:1030900000007A45DC010020D8010020D401002086
:1030A000C40100200000FA430000C8C330B5034645
:1030B0001C788C545D78541C0D559D78941C0D55CE
:1030C000DD78D41C0D5530BD2DE9F04102460025B8
:1030D0000026002000230024002791F803C00CF0F4
:1030E0000F0591F803C01CF0100F03D091F802C037
:1030F0004CEA0505B1F800C01CF0FF0F31D0146890
:1031000000202BE04FF0010C0CFA00F3B1F800C0E6
:103110000CEA03069E4220D183004FF00F0C0CFAFC
:1031200003F7BC4305FA03FC4CEA040491F803C01E
:10313000BCF1280F06D14FF0010C0CFA00FCC2F8CC
:1031400014C00AE091F803C0BCF1480F05D14FF05C
:10315000010C0CFA00FCC2F810C0401C0828D1D3A6
:103160001460B1F800C0BCF1FF0F34DD54680020DA
:103170002EE000F1080C4FF0010808FA0CF3B1F84A
:1031800000C00CEA03069E4221D183004FF00F0CD1
:103190000CFA03F7BC4305FA03FC4CEA040491F86B
:1031A00003C0BCF1280F05D100F1080C08FA0CF897
:1031B000C2F8148091F803C0BCF1480F07D100F1A8
:1031C000080C4FF0010808FA0CF8C2F81080401CF7
:1031D0000828CED35460BDE8F0810000F0B50A465F
:1031E000002300240021002500F00046B6F1004F26
:1031F00002D11D4EF16901E01B4E7168C0F3034519
:1032000083B200F44016B6F5401F08D121F070617A
:10321000154E766826F07066134F7E6012E000F45B
:103220008016B6F5801F06D1032606FA05F4A143E1
:1032300041F0706106E0460D360103FA06F6B1432F
:1032400041F0706122B1460D360103FA06F63143B2
:1032500000F00046B6F1004F02D1034EF16101E0EB
:10326000014E7160F0BD00000000014002460020E8
:1032700093680B4201D0012000E0002070474161BB
:10328000704701617047000001460648006880B23F
:1032900000EBC10000F10400034A52F8100080B2B4
:1032A00070470000505C0040006000400146064846
:1032B000006880B200EBC10000F10600034A52F83A
:1032C0001000C0F309007047505C004000600040EF
:1032D00001460548006880B200EBC100034A52F87D
:1032E000100080B270470000505C00400060004059
:1032F0002DE9F04104460A480568001D0668001DD6
:1033000007683D4455B10822A11C284601F06FF81A
:10331000042204F11201304601F069F8BDE8F081A1
:10332000E8F7FF1F30B590FBF3F425B2074CA4F883
:10333000545091FBF3F425B2044CA4F8565092FB80
:10334000F3F425B2014CA4F8585030BD741C002091
:103350002DE9F04186B04FF0000800200390049062
:10336000059000900190029000250026002778E04B
:10337000B8F1320F51DA01F075F93D49B1F9341065
:103380000098084400903A48B0F936000199084482
:1033900001903748B0F93800029908440290344847
:1033A000B0F934000399281A05D53148B0F9340032
:1033B0006A42101A03E02E48B0F93400281A084473
:1033C00003902B48B0F936000499301A05D52848E7
:1033D000B0F936007242101A03E02548B0F9360001
:1033E000301A084404902248B0F938000599381A78
:1033F00005D51F48B0F938007A42101A03E01C487E
:10340000B0F93800381A084405901948B0F934501A
:10341000B0F93660B0F938701FE00398642805DA17
:103420000498642802DA059864280EDB4FF000083F
:10343000002407E0002003A941F824004DF82400EF
:10344000601CC4B2032CF5DB07E032239DE80700C3
:10345000FFF768FF01200749087008F1010000F03C
:10346000FF0804480078002882D006B0BDE8F0814B
:10347000741C0020910100202DE9FF410546002623
:1034800002AB062203213C2000F072FD5448006884
:103490000A2190FBF1F052490968081A5049086066
:1034A0009DF809009DF8081040EA012000B24C493F
:1034B000096808444A490860084600680A2190FBE8
:1034C000F1F000B2ADF800004548406890FBF1F023
:1034D00043494968081A424948609DF80D009DF823
:1034E0000C1040EA012000B23D49496808443C49BB
:1034F0004860084640680A2190FBF1F000B2ADF840
:1035000002003748806890FBF1F035498968081A55
:10351000334988609DF80B009DF80A1040EA0120AD
:1035200000B22F49896808442D49886008468068A0
:103530000A2190FBF1F000B2ADF80400294880792F
:1035400040B101202849087000202649C87068460B
:1035500001F09EF92448007808B300202249087041
:10356000002415E02148006830F91400002805DA2D
:103570001E48006830F91400404203E01B48006810
:1035800030F91400142801DA701CC6B2601CC4B2F1
:10359000062CE7DB022E02DB01201249C870002452
:1035A0001AE01249096801EB4401B1F906100F4A0B
:1035B000126832F914208F1807EBD7713DF91420E7
:1035C000A2EB6100FDF726F88046FDF74FF800B248
:1035D00025F81400601CC4B2032CE2DBBDE8FF81B7
:1035E000E81C0020741D0020980100209401002098
:1035F00000BFFEE710B50D4801680D48FCF7B4FDAB
:103600000C4908600C490B480068FDF7E1F802D24C
:10361000094808490860094906480068FDF7CEF8DE
:1036200002D206480349086010BD0000C401002012
:1036300000000C44CC010020000048440000484336
:1036400010B50F2017490870032048700222164851
:10365000FFF72CFD062213491348001DFFF726FD36
:103660000A22104910480830FFF720FD00200F49BA
:103670000860002408E00B48005D0C490968084414
:103680000A490860601CC4B20E2CF4DB07480068CD
:10369000FF21B0FBF1F201FB1200024988730F20F9
:1036A00010BD0000841E0020781E00209003002022
:1036B00010B53F2059490870012048705849B1F9A8
:1036C0000000FCF7A7FF574908605549B1F902000F
:1036D000FCF7A0FF544908605149B1F90400FCF718
:1036E00099FF524908604E49B1F93400FCF792FF46
:1036F0004F4908604A49B1F93600FCF78BFF4D4944
:1037000008604749B1F93800FCF784FF4A4908606E
:103710004A49B1F90000FCF77DFF49490860474973
:10372000B1F90200FCF776FF464908604349B1F958
:103730000400FCF76FFF44490860444800684449AE
:103740000860002043490860434908600222334969
:103750003448FFF7ABFC062230493348FFF7A6FC9C
:103760000A222E493148FFF7A1FC0E222B4930488E
:10377000FFF79CFC122229492E48FFF797FC1622DE
:1037800026492D48FFF792FC1A2224492C48FFF7BE
:103790008DFC1E2221492B48FFF788FC22221F495D
:1037A0002948FFF783FC26221C492948FFF77EFCA5
:1037B0002A221A492748FFF779FC2E221749264862
:1037C000FFF774FC322215492448FFF76FFC3622BC
:1037D00012492348FFF76AFC3A2210492148FFF7B3
:1037E00065FC002020490860002408E00B48005DCB
:1037F0001D49096808441C490860601CC4B23E2C7D
:10380000F4DB19480068FF21B0FBF1F201FB120064
:10381000024981F83E003F2010BD0000841E0020B8
:10382000741C0020400300204403002048030020B3
:103830004C030020500300205403002038030020D4
:10384000580300205C03002060030020E8010020F2
:1038500064030020680300206C0300207003002034
:1038600074030020780300209003002010B51D2071
:10387000414908700220487002224048FFF716FCB8
:1038800006223D493E48FFF711FC0A223A493D48CD
:10389000FFF70CFC0E2238493B48FFF707FC1222C9
:1038A00035493A48FFF702FC39480088000A324996
:1038B000887537480078C87536480088000A087649
:1038C0003448007848763448007888760020C876F6
:1038D0003248007828B10846C07E40F00100C87622
:1038E00005E02548C07E00F0FE002349C8762C483C
:1038F0000078572806D12048C07E40F002001E49BB
:10390000C87609E026480078452805D11A48C07EC7
:1039100000F0FD001849C876224800784E2806D1EC
:103920001548C07E40F004001349C87609E01D48E0
:103930000078532805D11048C07E00F0FB000E49E6
:10394000C876002018490860002408E00A48005D95
:1039500015490968084414490860601CC4B21C2C4D
:10396000F4DB11480068FF21B0FBF1F201FB12000B
:10397000014908771D2010BD841E002094030020FB
:10398000980300209C030020A0030020A403002033
:10399000AC030020B0030020A8030020B6030020E1
:1039A000B4030020B50300209003002070B57349D4
:1039B000886A7349FCF730FC0546FCF757FE7149ED
:1039C00008606E49C86A6E49FCF726FC0546FCF79C
:1039D0004DFE6D4908606949086B6949FCF71CFC9C
:1039E0000546FCF743FE694908606449086F64496D
:1039F000FCF712FC0546FCF739FE654908605F4993
:103A0000486F5F49FCF708FC0546FCF72FFE61494B
:103A100008605A49886F5A49FCF7FEFB0546FCF7D7
:103A200025FE5D4908605549D1F8B8005449FCF7B6
:103A3000F3FB0546FCF71AFE584908604F49D1F8D8
:103A4000BC004F49FCF7E8FB0546FCF70FFE544964
:103A500008604A49D1F8C0004949FCF7DDFB05463A
:103A6000FCF704FE4F49086021204F4908700520EB
:103A7000487044480088000A887042480078C8703E
:103A800041480088000A08713F48007848713F4863
:103A90000088000A88713D480078C8713C48008859
:103AA000000A08723A48007848723A480088000ACA
:103AB000887238480078C87237480088000A08734E
:103AC00035480078487335480088000A88733348C1
:103AD0000078C87332480088000A087430480078BB
:103AE000487430480088000A88742E480078C874EA
:103AF0002E480088000A08752C48007848752C4824
:103B00000088000A88752A480078C8752948008806
:103B1000000A087627480078487627480088000A77
:103B2000887625480078C87624480088000A0877F7
:103B300022480078487722480088000A8877204881
:103B40000078C87700201F490860002408E0164864
:103B5000005D1C49096808441A490860601CC4B229
:103B6000202CF4DB17480068FF21B0FBF1F201FBC9
:103B700012000D4981F82000212070BD041F002093
:103B80000000C842B8030020BC030020C00300208E
:103B9000C4030020C8030020CC030020D003002071
:103BA000D4030020D8030020841E0020DC03002062
:103BB000E0030020E4030020E8030020EC030020E1
:103BC000F00300209003002015202F4A10700420DD
:103BD00050702E480088000A90702C480078D070F1
:103BE0002A484088000A1071284880785071274878
:103BF0008088000A907125480079D0712348C088D8
:103C0000000A107221488079507220480088000A0A
:103C100090721E480078D0721C480088000A107309
:103C20001A480078507319480088000A90731748A2
:103C30000078D07315480088000A10741348007883
:103C4000507412480088000A907410480078D074AC
:103C500000200F4A1060002108E00B48405C0C4A2D
:103C6000126810440A4A1060481CC1B21429F4DBDF
:103C700007480068FF22B0FBF2F302FB1300024A80
:103C80001075152070470000841E0020301D002094
:103C90009003002010B505F09FFC10BD10B505F095
:103CA000FDFC10BD10B505F097FC10BD10B505F07A
:103CB000F5FC10BD00B54FF480600C49086000F0C1
:103CC0004DFA4FF400600949086000F047FA4FF4DC
:103CD00080600649091F086000F040FA4FF48060D8
:103CE0000249086000F03AFA00BD0000140C0140DF
:103CF00021B1028842F48062028004E002884FF61B
:103D0000FF331A400280704721B1028842F001025D
:103D1000028004E002884FF6FE731A40028070476A
:103D200010B504460B48844209D10121480501F031
:103D3000D3FE00214FF4001001F0CEFE08E0012177
:103D4000880501F0C9FE00214FF4800001F0C4FE97
:103D500010BD00000054004021B1028842F480727E
:103D6000028004E002884FF6FF631A400280704729
:103D700021B1028842F40072028004E002884FF60A
:103D8000FF531A400280704708B50121082001F056
:103D9000B3FE4FF48060ADF8000003208DF8020000
:103DA00014208DF8030069460A48FFF78DF94FF497
:103DB0000060ADF8000003208DF8020014208DF89B
:103DC000030069460348FFF77FF940F6FF7005F0EE
:103DD00098FA08BD000C014010B51AB183880B4356
:103DE000838004E08388CC43A4B22340838010BD49
:103DF0002DE9F04385B004460D460026B146042760
:103E0000DFF8CC80A6884FF6C0710E40684601F0FE
:103E100093FEDDF808802F48B8FBF0F01FFA80F918
:103E200046EA0906A68020884FF6FE7108402080E9
:103E300000262949286888420CD828684000B8FB29
:103E4000F0F087B2042F00DA04273E4309F10100A5
:103E5000208427E0E888A0F53F41FF3906D1286893
:103E600000EB4000B8FBF0F087B209E0286800EBF7
:103E7000C00101EB0010B8FBF0F087B247F48047B7
:103E80003805000D01D147F0010747F40040064313
:103E90004FF4967009FB00F04FF47A7190FBF1F04B
:103EA000401C2084A683208840F0010020802688C2
:103EB0004FF6F5310E40A8886989084306432680ED
:103EC000A88929890843208105B0BDE8F083000056
:103ED00000127A0040420F00A086010000B54FF4A6
:103EE00080600C49086000F039F94FF4006009491E
:103EF000091F086000F032F94FF480600549091F7E
:103F0000086000F02BF94FF480600249086000F06F
:103F100025F900BD140C014000B5082100200A025B
:103F2000124B1A6016E04206100E4FF480620F4BDF
:103F30001B1D1A6000F012F94FF480620B4B1A60DF
:103F400000F00CF9094A083A126812F4006F01D027
:103F500040F001000A00A1F10103D9B2E3D14FF40E
:103F60008062024B1B1D1A6000BD0000100C014056
:103F70002DE9F04107460E461546984600F062F8D6
:103F8000384600F031F800F0BBF8304600F02CF86D
:103F900000F0B6F800F056F8791CC8B200F024F82A
:103FA00000F0AEF800240DE0FFF7B6FF08F80400BB
:103FB000681EA04202D1FFF791FF01E0FFF77AFEF1
:103FC000601CC4B2AC42EFDB00F06CF800F0C6F845
:103FD000BDE8F08112B141F0010102E04FF6FE733D
:103FE000194001827047000000B508211DE04FF420
:103FF0008062134B1A6000F0B1F810F0800F05D00A
:104000004FF400620E4B1B1F1A6003E04FF4006276
:104010000B4B1A604206100E00F0A0F84FF48062BD
:10402000074B1B1F1A6000F099F80A00A1F1010369
:10403000D9B2DCD14FF48062014B1A6000BD0000A0
:10404000140C014000B54FF40060154908604010A1
:10405000086000F083F812480838006808B90120A9
:1040600000E0002010F4006F01D0002000BD4FF4EC
:1040700000600B49091D086000F070F80848083816
:10408000006810F4006F01D00020EFE74FF40060EB
:104090000349091D086000F061F80120E6E700000F
:1040A000100C014000B54FF480600C49086000F02E
:1040B00055F84FF400600949086000F04FF84FF4DC
:1040C00080600649091F086000F048F84FF400605E
:1040D0000249091F086000F041F800BD140C0140BE
:1040E00041F288310160002181804BF6FF71C1806F
:1040F0000021018141814FF480418181704700009E
:1041000000B54FF480601449086000F027F84FF4C0
:1041100000601149091F086000F020F84FF480602A
:104120000D49091F086000F019F80B480C380068A9
:1041300010F4006F07D04FF480600749086000F06A
:104140000DF8002000BD4FF480600349086000F0C6
:1041500005F80120F6E70000140C014000BF70478D
:104160002DE9FF5F88B092469946DDF85CB0ABF16F
:10417000010004B208E0601E0AEBC00103C90AEBAB
:10418000C40203C2601E04B2002CF4DCDDE90801A5
:10419000CAE9000100252E46002418E0169800EB1D
:1041A000C40003C8CDE902010AEBC40003C8CDE98D
:1041B0000001DDE90223FCF74CF92A463346CDE93C
:1041C0000401FCF79FF805460E46601C04B25C45EE
:1041D000E4DB1998401E04B208E0601E09EBC00140
:1041E00003C909EBC40203C2601E04B2002CF4DC54
:1041F0000027B846012418E0189800EBC40103C951
:10420000CDE9020109EBC40003C8CDE90001DDE9F5
:104210000223FCF71EF93A464346CDE90401FCF7B8
:1042200071F807468846601C04B219988442E3DBA3
:104230003A46434628463146FCF705F9C9E90001EC
:10424000D9E90001CDE90601DDE906010CB0BDE8C0
:10425000F09F000010B518480068047A022C01D0C5
:10426000042C05D1FDF776FE13480068047A1CE0A3
:10427000062C19D110480068407805280ED10E4848
:104280000068007810F07F0F08D10B490968C878E2
:1042900001F0C0FF09490968086A804708490968B0
:1042A00088688047082400E00824034909680C72E4
:1042B00001F0E8F910BD00001C00002028000020DB
:1042C0002000002010B5482005F02EF800F0C4FEB4
:1042D00004F06EFFFCF7FCFB00F04EFFFFF754FD0F
:1042E00000F034F903F03CFC02F0ECFD01F0B0F911
:1042F00001F0F6F800F0DEFC00F062F9FEF780FD58
:10430000FEF728FA10BD000070B504260024012035
:10431000FEF7D6F90446AB2C06D1124800EBC420B8
:1043200011490860AB2070BD0E4800EBC4200E4957
:104330000860601C0B49891E01EBC0250CE00A488F
:1043400000680068401C02D104263046EBE70648AE
:104350000068001D0449086003480068A842EED3C5
:104360008020E0E7000001083C01002010B5752125
:10437000D02002F021F904460CB9002010BD002223
:104380006B21D02002F040F907221921D02002F041
:104390003BF903221A21D02002F036F910221B210A
:1043A000D02002F031F909221C21D02002F02CF992
:1043B0000120E3E710B50A213C2002F0FDF8044695
:1043C0000CB9002010BD702200213C2002F01CF925
:1043D000202201213C2002F017F9002202213C207A
:1043E00002F012F9642004F08CFF0120EAE730B5F6
:1043F0000B46002100BF16E00A24B4EB107F05D95C
:10440000302404EB107403F8114005E0412404EB60
:1044100010740A3C03F81140000100254C00641C94
:104420001D554C1CE1B29142E6DB30BD10B515487C
:10443000007810F0010F04D001211348FEF71FFF90
:1044400003E001211048FEF71CFF0E480078C0F37E
:10445000400020B102210C48FEF711FF03E00221C9
:104460000948FEF70EFF07480078C0F3800020B12E
:1044700004210548FEF703FF03E004210248FEF78C
:1044800000FF10BD300100200014014010B52D4880
:104490000078072851D2DFE800F004224050444859
:1044A0004C0028484088401C80B226494880782823
:1044B00001DB00204880234840880A2807DB214888
:1044C0004088142807DD1F4840881E2803DA06208C
:1044D0001D49087002E000201B4908702DE01948B2
:1044E0004088401C80B2174948803C2801DB0020EE
:1044F000488014484088142803DC012012490870C1
:104500000AE010484088282803DC02200E49087081
:1045100002E004200C4908700FE004200A490870EA
:104520000BE001200849087007E0022006490870E6
:1045300003E004200449087000BF00BFFFF776FFC6
:1045400010BD00002C0100203001002008B5012121
:10455000202001F0D1FA0121402001F0CDFA012103
:10456000084601F0C9FA01211148FEF737FE012182
:104570001048FEF733FE0720ADF8000010208DF83C
:10458000030003208DF8020069460B48FEF79CFDEE
:1045900007210948FEF775FE7820ADF8000069464E
:1045A0000648FEF791FD78210448FEF76AFE08BD33
:1045B00000043000000230000014014000180140E7
:1045C00010B507211948FEF75AFE4FF4617004F048
:1045D00098FE07211548FEF754FE4FF47A5004F078
:1045E00090FE07211148FEF74AFE4FF4617004F077
:1045F00088FE07210D48FEF744FE4FF47A5004F080
:1046000080FE07210948FEF73AFE4FF4617004F07E
:1046100078FE07210548FEF734FE4FF47A5004F087
:1046200070FE07210148FEF72AFE10BD001401406C
:104630002DE9F04704460D46164631462846FBF75D
:10464000EBFD804631464FF07E50FBF7DFFD8146A3
:104650002146FBF7E1FD07464146FBF785FDBDE836
:10466000F087000010B500F0C7F85C4840785B495F
:10467000097840EA01205A49098C401A00B2584989
:1046800008805648C0785549897840EA0121544845
:10469000408C081A00B252494880504840794F492E
:1046A000097940EA012000B24D4988804B48407AA0
:1046B0004A49097A40EA012000B2494988864748B8
:1046C000C07A4649897A40EA012001B24448C1864D
:1046D0004248407B4149097B40EA012001B2404801
:1046E00001870146B1F93420B1F95410501AFBF793
:1046F00091FF3B49C865B1F93620B1F95610501AFF
:10470000FBF788FF0146364801660146B1F93820BB
:10471000B1F95810501AFBF77DFF01463048416649
:1047200030484079002857D02F48007880B90020C1
:104730002B49088400212A484184818400202B4988
:1047400008602B4908602B49086001202649087041
:104750002348B0F900002549096808442349086046
:104760001F48B0F90200224909680844204908603E
:104770001B48B0F904001F49096808441D49086036
:1047800019480078C82822D11848006816490978C5
:1047900090FBF1F000B212490884154800681249F4
:1047A000097890FBF1F001B20D484184114800688E
:1047B0000D49097890FBF1F001B20948818400208D
:1047C0000949087007494871FEF75AF910BD0648B3
:1047D0000078401C0449087000BFF7E7641C002003
:1047E000741C0020741D0020900100208401002012
:1047F000880100208C01002010B53B21D02001F061
:10480000DBFE224908703C21D02001F0D5FE1F4973
:1048100048703D21D02001F0CFFE1C4988703E2118
:10482000D02001F0C9FE1949C8703F21D02001F005
:10483000C3FE164908714021D02001F0BDFE134986
:1048400048714321D02001F0B7FE1049087244217D
:10485000D02001F0B1FE0D4948724521D02001F071
:10486000ABFE0A4988724621D02001F0A5FE074917
:10487000C8724721D02001F09FFE044908734821E7
:10488000D02001F099FE0149487310BD641C00203E
:104890002DE9FF5F81469448007898B10020924945
:1048A00008709249086092490860924908600024A3
:1048B00006E000209049096821F81400601CC4B289
:1048C000062CF6DB002421E08B48006830F9140048
:1048D00039F91410884206DD39F814008649096850
:1048E00021F8140010E08448006800EB4400B0F99F
:1048F000060039F91410884206DA39F814007E49A6
:10490000096801EB4401C880601CC4B2032CDBDBE6
:104910007A488079012847D1794908690021FBF755
:104920004DFF04D27648006980F0004001E07448F1
:10493000006905467349FBF74BFF35D27049486E55
:10494000FBF7F9FE704A714BCDE90001FBF781FDE1
:1049500007464FF060426E4BFBF77BFD05460E4667
:1049600062480068FBF7E7FE82462A463346FBF7BB
:10497000C9FCCDE90201FBF705FF5C490860002195
:104980005A480068FBF71AFF04D25848006880F0C4
:10499000004001E05548006805465E49FBF718FFF6
:1049A00002D202205549887154488079022847D1A3
:1049B000534988680021FBF701FF04D25048806802
:1049C00080F0004001E04E48806805464D49FBF705
:1049D000FFFE35D24A49C86DFBF7ADFE07464A4A8D
:1049E0004A4BFBF736FD05464FF06042484BFBF75C
:1049F00030FD82468B463F480068FBF79CFE5246DE
:104A00005B46CDE90001FBF77DFCCDE90201FBF738
:104A1000B9FE38490860002136480068FBF7CEFE31
:104A200004D23448006880F0004001E0314800685A
:104A300005463849FBF7CCFE02D203202F49887186
:104A40002E48807903284CD12D49C8680021FBF7F6
:104A5000B5FE04D22A48C06880F0004001E0284832
:104A6000C06805462749FBF7B3FE3AD22449086ED1
:104A7000FBF761FE0746244A244BFBF7EAFC4FF0A4
:104A80006042234BCDE90001FBF7E3FC05460E46EF
:104A900017480068FBF74FFE82462A463346FBF76D
:104AA00031FCCDE90201FBF76DFE114908600021E0
:104AB0000F480068FBF782FE04D20D48006880F0C2
:104AC000004001E00A48006805461249FBF780FEF5
:104AD00007D2012004490870002008498871FEF7B8
:104AE00081F8BDE8FF9F000099010020A40100208B
:104AF000A00100209C01002094010020741D0020D2
:104B0000741C002000409C4530689DC8FE3F9F3FBC
:104B10004D62603F0000B44300BFFEE72DE9F84F4F
:104B20004C49886CFBF7A2FD04B24A49D1F89000C9
:104B3000FBF79CFD05B24748D0F8D80080F000474D
:104B40003846FBF793FD06B24348407A00287BD0F5
:104B50003046FBF75FFD82462846FBF75BFD834648
:104B60002046FBF757FD00903C4801680098FBF792
:104B700050FB81465946FBF749FB80465146FBF7FF
:104B8000F3FA0746FBF772FD00B23549088030465C
:104B9000FBF740FD82462846FBF73CFD009020468F
:104BA000FBF738FD83462D4801685846FBF731FB7B
:104BB00081460099FBF7D8FA80465146FBF726FB61
:104BC0000746FBF753FD00B2254948803046FBF706
:104BD00021FD00902846FBF71DFD82462046FBF78D
:104BE00019FD83461D4801685846FBF7BDFA81460A
:104BF0005146FBF7B9FA80460099FBF7B5FA07462C
:104C0000FBF734FD00B2164988803046FBF702FD01
:104C100000902846FBF7FEFC82462046FBF7FAFC94
:104C200083460E4801685846FBF79EFA8146514676
:104C3000FBF7ECFA80460099FBF7E8FA0746FBF72A
:104C400015FD00B20649C880054805F08BF8BDE89F
:104C5000F88F0000041F0020741D0020CC010020EC
:104C6000FA030020704770471CB510A103C9CDE9B5
:104C7000000105226946302000F0CCF80522694683
:104C8000102000F0A5F8002406E01DF80400A52877
:104C900000D003E0601CC4B2052CF6DB00BF052C7D
:104CA00001D000201CBD0120FCE70000A5A5A5A5A2
:104CB000A500000010B508210548FEF7E0FA4FF402
:104CC00000410448FEF7DDFA01F094F810BD000041
:104CD000001401400008014010B50446082139487D
:104CE000FEF7CDFA05223849302000F093F805226E
:104CF00036492A2000F08EF80121212000F0ACF87E
:104D00000121222000F0A8F81A21242000F0A4F8A4
:104D10002821252000F0A0F80F21262000F09CF883
:104D2000012C08D12021312000F096F80F212020FD
:104D300000F092F841E0022C08D12021312000F04F
:104D40008BF80E21202000F087F836E0032C1AD1D2
:104D5000FF21E12000F080F8FF21E22000F07CF844
:104D60000F21202000F078F8502001F0BDF87320CA
:104D700001F0BAF801213C2000F06EF807213D2037
:104D800000F06AF819E00E21202000F065F8FF21FC
:104D9000E12000F061F8FF21E22000F05DF85020F2
:104DA00001F0A2F8732001F09FF801213C2000F0EF
:104DB00053F807213D2000F04FF808210148FEF785
:104DC00060FA10BD00140140A8010020AD010020D0
:104DD0002DE9F04107460D4616464FF400410C48B8
:104DE000FEF74DFA384601F07FF88046002405E0D2
:104DF000FF2001F079F82855601CC4B2B442F7DBFB
:104E00004FF400410248FEF73CFA4046BDE8F0810D
:104E1000000801402DE9F04107460C4615464FF4C5
:104E200000410C48FEF72BFA384601F05DF8804649
:104E3000002605E014F8010B01F056F8701CC6B20C
:104E4000AE42F7DB4FF400410248FEF71AFA404643
:104E5000BDE8F0810008014070B505460C464FF4EE
:104E600000410848FEF70BFA284601F03DF80646D7
:104E7000204601F039F84FF400410248FEF701FAEC
:104E8000304670BD0008014070B5002100230F229C
:104E9000C4784CB31A4C246804F4E064C4F5E064AC
:104EA0004FEA1421C1F1040322FA01F2447804FA12
:104EB00003F1847804EA020444EA01014FEA011193
:104EC000104C0678A155047804F01F054FF001043A
:104ED00004FA05F405784FEA65154FF0E02606EB75
:104EE0008505C5F8004109E0047804F01F05012498
:104EF000AC40054D0678761145F8264070BD00009F
:104F00000CED00E000E400E080E100E00249014334
:104F1000024A1160704700000000FA050CED00E045
:104F200070B5022647480068447846480068007813
:104F300010F07F0F44D1092C03D101F0FFFC06468D
:104F40005FE0052C14D13F480068C0787F280BDC57
:104F50003C480068807838B93A480068808818B9B9
:104F600038480068807A08B1082567E0002648E0E4
:104F7000032C0ED133480068C078012807D131488E
:104F80000068808818B901F0FDFC064639E0022669
:104F900037E0012C35D12B480068C07801280DD1AD
:104FA00028480068808848B926480068407A10F090
:104FB000200F03D001F04CFB064622E0022620E041
:104FC00020480068007800F07F00012805D10B2CF4
:104FD00017D101F055FD064613E01A480068007825
:104FE00000F07F0002280BD1012C03D101F030FB2F
:104FF000064606E0032C04D101F0D8FC064600E08A
:1050000002264EB1104800684169E0B28847064662
:10501000032E01D1092511E00EB108250EE0062569
:1050200000210A48006880B200F10200084A42F8F4
:1050300010104FF030000749088000BF014909688F
:105040000D7270BD1C00002020000020505C00404C
:10505000006000402E00002008B54FF4A060FFF76C
:1050600055FF32208DF8000002208DF8010000204D
:105070008DF8020001208DF803006846FFF704FF59
:105080001D208DF8000000208DF8010002208DF811
:10509000020001208DF803006846FFF7F5FE08BD09
:1050A0002DE9F05F05468B4616463446002C00DAA3
:1050B00064424FF47A7094FBF0F0C7B24FF47A7008
:1050C00094FBF0F100FB1140642190FBF1F000F043
:1050D000FF08642094FBF0F100FB11400A2190FBD3
:1050E000F1F000F0FF090A2094FBF0F100FB114001
:1050F00000F0FF0A3A465946284600F0C9F84246F1
:105100005946681CC0B200F0C3F84A465946A81C6C
:10511000C0B200F0BDF852465946E81CC0B200F0DB
:10512000B7F8BDE8F09F07E040F2375100BF0A0032
:10513000A1F10101FBD1401E0028F5D1704770B5E7
:105140000646002415E004F1B001C8B200F034F9BD
:10515000012000F031F9102000F02EF9002504E0C4
:10516000304600F055F9681CC5B2802DF8DB601C94
:10517000C4B2082CE7DB70BD08B50121102000F097
:10518000BBFC0F20ADF8000003208DF802001020BA
:105190008DF8030069463D48FDF796FF08213B481E
:1051A000FEF76FF802213948FEF769F83220FFF761
:1051B000BAFF02213548FEF764F80021AE2000F066
:1051C000CBF80021D52000F0C7F80021802000F0A6
:1051D000C3F80021A82000F0BFF800213F2000F014
:1051E000BBF80021D32000F0B7F80021084600F0FA
:1051F000B3F80021402000F0AFF800218D2000F02E
:10520000ABF80021142000F0A7F80021202000F0C6
:10521000A3F80021022000F09FF80021A12000F057
:105220009BF80021C82000F097F80021DA2000F058
:1052300093F80021122000F08FF80021812000F067
:105240008BF80021EF2000F087F80021D92000F032
:1052500083F80021F12000F07FF80021DB2000F02E
:105260007BF80021402000F077F80021A42000F016
:1052700073F80021A62000F06FF80021AF2000F0A5
:105280006BF80020FFF75BFF08BD00000010014035
:105290002DE9F04105460F46164600BF05EB4501D6
:1052A0004906080E394600F045F800240AE006F1E8
:1052B000100101EB4101054A02EB4101085D00F0DC
:1052C000A7F8641C062CF2DBBDE8F08138A30208C5
:1052D0002DE9F0470446884615464FF000090026A0
:1052E00000274146204600F025F81CE0E85D203804
:1052F00000F0FF097E2C04DD002408F1010000F01D
:10530000FF08002609E009EB4901094A02EB4101C7
:10531000885D00F07DF8701CC6B2062EF3DBA01D80
:10532000C4B2781CC7B2E85D0028DFD1BDE8F087C1
:1053300038A3020870B504460D4605F1B001C8B2A5
:1053400000F03AF8210941F0100000F035F804F0BF
:105350000F0000F031F870BD70B504460E4626B15E
:1053600001211448FDF78DFF03E001211148FDF7ED
:1053700086FF002517E008210E48FDF780FF14F096
:10538000800F04D004210B48FDF77BFF03E00421CC
:105390000848FDF774FF08210648FDF772FF600614
:1053A000040E681CC5B2082DE5DB01210148FDF79C
:1053B00068FF70BD0010014070B50446082501214A
:1053C0001248FDF75CFF08211048FDF758FF00BFA9
:1053D00016E014F0800F04D004210C48FDF751FFB3
:1053E00003E004210948FDF74AFF08210748FDF7BB
:1053F00048FF00BF08210548FDF741FF6006040E85
:105400002800A5F10101CDB2E3D170BD001001402B
:1054100070B50446082501211348FDF732FF00BF8F
:1054200008211148FDF72BFF00BF16E014F0800F94
:1054300004D004210C48FDF724FF03E004210A48AE
:10544000FDF71DFF08210848FDF71BFF00BF0821DD
:105450000548FDF714FF6006040E2800A5F10101C0
:10546000CDB2E3D170BD00000010014010B511486D
:105470000068047A022C01D0042C01D1082412E027
:10548000032C01D0052C05D1FCF7C6FD09480068A6
:10549000047A08E0072C05D107490968C8688047E5
:1054A000082400E00824034909680C7200F0EAF8B7
:1054B00010BD00001C00002020000020F0B5561C8C
:1054C0007510064E06EB41042B4604E080CC20F814
:1054D000017B401C5B1E002BF8D1F0BD006000403A
:1054E00000B587B00121032000F0E6FA01210C206D
:1054F00000F002FB0121042000F0FEFA0320ADF8C9
:10550000180028208DF81B0006A94E48FDF7DCFD89
:105510000420ADF8180010208DF81B0006A949489A
:10552000FDF7D2FD0F20ADF8180028208DF81B00E4
:1055300006A94448FDF7C8FDC020ADF8180006A92B
:105540004048FDF7C1FD0120ADF8180006A93E480E
:10555000FDF7BAFD4FF6FF70ADF810004720ADF82B
:105560000C000020ADF81200ADF80E0003A94FF0BA
:10557000804002F0CFF803A9344802F0CBF80020B5
:10558000ADF80000ADF802000120ADF804000020E5
:10559000ADF80600ADF8080069464FF0804001F014
:1055A000D9FE6946294801F0D5FE0420ADF8000077
:1055B0000020ADF802000120ADF804000020ADF895
:1055C0000600ADF8080069464FF0804001F0C2FEC9
:1055D00069461E4801F0BEFE0820ADF8000000201C
:1055E000ADF802000120ADF804000020ADF806007F
:1055F000ADF8080069464FF0804001F0ABFE694607
:10560000124801F0A7FE0C20ADF800000020ADF814
:1056100002000120ADF804000020ADF80600ADF84E
:10562000080069464FF0804001F094FE01210748D0
:1056300001F07CFD01220821044801F0E1FE07B0E1
:1056400000BD000000080140000C014000040040C3
:1056500008B50121082000F04FFA4FF47070ADF842
:10566000000018208DF8030003208DF80200694621
:105670000248FDF729FD02F09FF808BD000C01402B
:105680007047000010B50D4890F82C10002000F075
:10569000FDFD0B480068007A082805D14002094941
:1056A000088010200849088005480068007A092809
:1056B00001D1012000E00020C0B210BDA0000020F8
:1056C0001C0000202C0000202E0000202DE9F05F9F
:1056D00004464FF07F594FF07C512046FAF79CFD6D
:1056E000824625462E460C48A0EB660635462946DE
:1056F0005046FAF791FD83462946FAF78DFD80461C
:105700004946FAF786FD07462946FAF785FD05461C
:105710002846BDE8F09F0000DF59375F2DE9F84FBC
:1057200004460025E168E068FAF776FD0090A1687C
:10573000A068FAF771FD814661686068FAF76CFD50
:10574000824621682068FAF767FD83465146FAF7DA
:105750000BFD80464946FAF707FD07460099FAF720
:1057600003FD0646FFF7B2FF054620682946FAF713
:1057700053FD206060682946FAF74EFD6060A0681E
:105780002946FAF749FDA060E0682946FAF744FD8A
:10579000E060BDE8F88F2DE9FF4F87B0044615465D
:1057A0001E46206806906768D4F80880E068059077
:1057B00031460598FAF730FD294604904046FAF73D
:1057C0002BFD039087F0004001900899FAF724FD23
:1057D00002900399FAF71AFD83460499FAF716FD29
:1057E00082461499FAF718FD81462168FAF7BCFC45
:1057F000206031464046FAF70FFD2946049005988F
:10580000FAF70AFD039008990698FAF705FD029049
:105810000399FAF7FBFC83460499FAF7A5FC824644
:105820001499FAF7F9FC81466168FAF79DFC60600B
:1058300031463846FAF7F0FC294604900698FAF704
:10584000EBFC039008990598FAF7E6FC029003999F
:10585000FAF78AFC83460499FAF7D8FC8246149931
:10586000FAF7DAFC8146A168FAF77EFCA0603146BF
:105870000698FAF7D1FC294604903846FAF7CCFC92
:10588000039088F0004001900899FAF7C5FC029057
:105890000399FAF769FC83460499FAF765FC824696
:1058A0001499FAF7B9FC8146E168FAF75DFCE0600B
:1058B0000BB0BDE8F08F00002DE9F04F85B0044635
:1058C0000D46E168E068FAF7A7FC0390A168A068BC
:1058D000FAF7A2FC029061686068FAF79DFC0190FB
:1058E00021682068FAF798FC00900199FAF73CFCCF
:1058F00083460299FAF78AFC82460399FAF786FCF6
:105900000646A1686068FAF787FC8346E16820686C
:10591000FAF782FC59460390FAF726FC82464FF0CC
:105920008041FAF779FC0746A1682068FAF774FC11
:105930008346E1686068FAF76FFC59460390FAF70E
:1059400065FC82464FF08041FAF766FC8046E168CC
:10595000A068FAF761FC834661682068FAF75CFC8E
:1059600059460390FAF700FC82464FF08041FAF75F
:1059700053FC8146E168E068FAF74EFC0390A168A9
:10598000A068FAF749FC029061686068FAF744FC85
:10599000019021682068FAF73FFC00900199FAF71E
:1059A00035FC83460299FAF731FC82460399FAF7EF
:1059B000DBFB0490404603F06BF880F00040286069
:1059C0004846049903F0CAFA68600748C07810B9DD
:1059D0000548407820B93146384603F0BFFAA86040
:1059E00005B0BDE8F08F0000741D00202DE9FE43D6
:1059F00005460C46A1682068FAF70EFC0746E168E8
:105A00006068FAF709FC80463946FAF7FFFB06465C
:105A10004FF08041FAF700FC0090E168A068FAF7C7
:105A2000FBFB074661682068FAF7F6FB80463946BB
:105A3000FAF79AFB06464FF08041FAF7EDFB01902A
:105A4000A168A068FAF7E8FB804661686068FAF729
:105A5000E3FB81464146FAF787FB07464FF080415A
:105A6000FAF7DAFB06464FF07E51FAF7D2FB0290C6
:105A700000982860019868600298A860BDE8FE83DD
:105A800001460020034A506820F44040084350601B
:105A9000704700000010024029B1064A52690243D3
:105AA000044B5A6104E0034A52698243014B5A6134
:105AB000704700000010024029B1064AD269024333
:105AC000044BDA6104E0034AD2698243014BDA6194
:105AD000704700000010024029B1064A12690243D3
